{
  "_format": "hh-sol-artifact-1",
  "contractName": "Boon",
  "sourceName": "contracts/Boon.sol",
  "abi": [
    {
      "inputs": [],
      "stateMutability": "nonpayable",
      "type": "constructor"
    },
    {
      "anonymous": false,
      "inputs": [
        {
          "indexed": true,
          "internalType": "address",
          "name": "from",
          "type": "address"
        },
        {
          "indexed": true,
          "internalType": "address",
          "name": "to",
          "type": "address"
        },
        {
          "indexed": false,
          "internalType": "uint256",
          "name": "value",
          "type": "uint256"
        }
      ],
      "name": "Airdrop",
      "type": "event"
    },
    {
      "anonymous": false,
      "inputs": [
        {
          "indexed": true,
          "internalType": "address",
          "name": "previousOwner",
          "type": "address"
        },
        {
          "indexed": true,
          "internalType": "address",
          "name": "newOwner",
          "type": "address"
        }
      ],
      "name": "OwnershipTransferred",
      "type": "event"
    },
    {
      "anonymous": false,
      "inputs": [
        {
          "indexed": false,
          "internalType": "address",
          "name": "account",
          "type": "address"
        }
      ],
      "name": "Paused",
      "type": "event"
    },
    {
      "anonymous": false,
      "inputs": [
        {
          "indexed": false,
          "internalType": "address",
          "name": "account",
          "type": "address"
        }
      ],
      "name": "Unpaused",
      "type": "event"
    },
    {
      "inputs": [
        {
          "internalType": "address",
          "name": "_token",
          "type": "address"
        },
        {
          "internalType": "address[]",
          "name": "_address",
          "type": "address[]"
        },
        {
          "internalType": "uint256[]",
          "name": "_rewards",
          "type": "uint256[]"
        }
      ],
      "name": "airdrop",
      "outputs": [],
      "stateMutability": "nonpayable",
      "type": "function"
    },
    {
      "inputs": [],
      "name": "owner",
      "outputs": [
        {
          "internalType": "address",
          "name": "",
          "type": "address"
        }
      ],
      "stateMutability": "view",
      "type": "function"
    },
    {
      "inputs": [],
      "name": "pause",
      "outputs": [],
      "stateMutability": "nonpayable",
      "type": "function"
    },
    {
      "inputs": [],
      "name": "paused",
      "outputs": [
        {
          "internalType": "bool",
          "name": "",
          "type": "bool"
        }
      ],
      "stateMutability": "view",
      "type": "function"
    },
    {
      "inputs": [],
      "name": "renounceOwnership",
      "outputs": [],
      "stateMutability": "nonpayable",
      "type": "function"
    },
    {
      "inputs": [],
      "name": "token",
      "outputs": [
        {
          "internalType": "contract IERC20",
          "name": "",
          "type": "address"
        }
      ],
      "stateMutability": "view",
      "type": "function"
    },
    {
      "inputs": [
        {
          "internalType": "address",
          "name": "newOwner",
          "type": "address"
        }
      ],
      "name": "transferOwnership",
      "outputs": [],
      "stateMutability": "nonpayable",
      "type": "function"
    },
    {
      "inputs": [],
      "name": "unpause",
      "outputs": [],
      "stateMutability": "nonpayable",
      "type": "function"
    }
  ],
  "bytecode": "0x608060405234801561001057600080fd5b5061002d61002261004c60201b60201c565b61005460201b60201c565b60008060146101000a81548160ff021916908315150217905550610118565b600033905090565b60008060009054906101000a900473ffffffffffffffffffffffffffffffffffffffff169050816000806101000a81548173ffffffffffffffffffffffffffffffffffffffff021916908373ffffffffffffffffffffffffffffffffffffffff1602179055508173ffffffffffffffffffffffffffffffffffffffff168173ffffffffffffffffffffffffffffffffffffffff167f8be0079c531659141344cd1fd0a4f28419497f9722a3daafe3b4186f6b6457e060405160405180910390a35050565b61113a806101276000396000f3fe608060405234801561001057600080fd5b50600436106100885760003560e01c80638456cb591161005b5780638456cb59146100db5780638da5cb5b146100e5578063f2fde38b14610103578063fc0c546a1461011f57610088565b8063025ff12f1461008d5780633f4ba83a146100a95780635c975abb146100b3578063715018a6146100d1575b600080fd5b6100a760048036038101906100a29190610ae2565b61013d565b005b6100b16104e5565b005b6100bb61056b565b6040516100c89190610d1d565b60405180910390f35b6100d9610581565b005b6100e3610609565b005b6100ed61068f565b6040516100fa9190610ccb565b60405180910390f35b61011d60048036038101906101189190610ab9565b6106b8565b005b6101276107b0565b6040516101349190610d38565b60405180910390f35b84600160006101000a81548173ffffffffffffffffffffffffffffffffffffffff021916908373ffffffffffffffffffffffffffffffffffffffff1602179055506000600160009054906101000a900473ffffffffffffffffffffffffffffffffffffffff1673ffffffffffffffffffffffffffffffffffffffff166370a08231336040518263ffffffff1660e01b81526004016101db9190610ccb565b60206040518083038186803b1580156101f357600080fd5b505afa158015610207573d6000803e3d6000fd5b505050506040513d601f19601f8201168201806040525081019061022b9190610b94565b1161026b576040517f08c379a000000000000000000000000000000000000000000000000000000000815260040161026290610db3565b60405180910390fd5b8181905084849050146102b3576040517f08c379a00000000000000000000000000000000000000000000000000000000081526004016102aa90610d53565b60405180910390fd5b60005b848490508110156104dd576000670de0b6b3a7640000848484818110610305577f4e487b7100000000000000000000000000000000000000000000000000000000600052603260045260246000fd5b905060200201356103169190610e3f565b9050600160009054906101000a900473ffffffffffffffffffffffffffffffffffffffff1673ffffffffffffffffffffffffffffffffffffffff166323b872dd33888886818110610390577f4e487b7100000000000000000000000000000000000000000000000000000000600052603260045260246000fd5b90506020020160208101906103a59190610ab9565b846040518463ffffffff1660e01b81526004016103c493929190610ce6565b602060405180830381600087803b1580156103de57600080fd5b505af11580156103f2573d6000803e3d6000fd5b505050506040513d601f19601f820116820180604052508101906104169190610b6b565b50858583818110610450577f4e487b7100000000000000000000000000000000000000000000000000000000600052603260045260246000fd5b90506020020160208101906104659190610ab9565b73ffffffffffffffffffffffffffffffffffffffff163373ffffffffffffffffffffffffffffffffffffffff167f8986d2aad709d6d52ca7673e78442a1ac939dc024b80334c27ca759e7658a028836040516104c19190610e13565b60405180910390a35080806104d590610f05565b9150506102b6565b505050505050565b6104ed6107d6565b73ffffffffffffffffffffffffffffffffffffffff1661050b61068f565b73ffffffffffffffffffffffffffffffffffffffff1614610561576040517f08c379a000000000000000000000000000000000000000000000000000000000815260040161055890610df3565b60405180910390fd5b6105696107de565b565b60008060149054906101000a900460ff16905090565b6105896107d6565b73ffffffffffffffffffffffffffffffffffffffff166105a761068f565b73ffffffffffffffffffffffffffffffffffffffff16146105fd576040517f08c379a00000000000000000000000000000000000000000000000000000000081526004016105f490610df3565b60405180910390fd5b610607600061087f565b565b6106116107d6565b73ffffffffffffffffffffffffffffffffffffffff1661062f61068f565b73ffffffffffffffffffffffffffffffffffffffff1614610685576040517f08c379a000000000000000000000000000000000000000000000000000000000815260040161067c90610df3565b60405180910390fd5b61068d610943565b565b60008060009054906101000a900473ffffffffffffffffffffffffffffffffffffffff16905090565b6106c06107d6565b73ffffffffffffffffffffffffffffffffffffffff166106de61068f565b73ffffffffffffffffffffffffffffffffffffffff1614610734576040517f08c379a000000000000000000000000000000000000000000000000000000000815260040161072b90610df3565b60405180910390fd5b600073ffffffffffffffffffffffffffffffffffffffff168173ffffffffffffffffffffffffffffffffffffffff1614156107a4576040517f08c379a000000000000000000000000000000000000000000000000000000000815260040161079b90610d93565b60405180910390fd5b6107ad8161087f565b50565b600160009054906101000a900473ffffffffffffffffffffffffffffffffffffffff1681565b600033905090565b6107e661056b565b610825576040517f08c379a000000000000000000000000000000000000000000000000000000000815260040161081c90610d73565b60405180910390fd5b60008060146101000a81548160ff0219169083151502179055507f5db9ee0a495bf2e6ff9c91a7834c1ba4fdd244a5e8aa4e537bd38aeae4b073aa6108686107d6565b6040516108759190610ccb565b60405180910390a1565b60008060009054906101000a900473ffffffffffffffffffffffffffffffffffffffff169050816000806101000a81548173ffffffffffffffffffffffffffffffffffffffff021916908373ffffffffffffffffffffffffffffffffffffffff1602179055508173ffffffffffffffffffffffffffffffffffffffff168173ffffffffffffffffffffffffffffffffffffffff167f8be0079c531659141344cd1fd0a4f28419497f9722a3daafe3b4186f6b6457e060405160405180910390a35050565b61094b61056b565b1561098b576040517f08c379a000000000000000000000000000000000000000000000000000000000815260040161098290610dd3565b60405180910390fd5b6001600060146101000a81548160ff0219169083151502179055507f62e78cea01bee320cd4e420270b5ea74000d11b0c9f74754ebdbfc544b05a2586109cf6107d6565b6040516109dc9190610ccb565b60405180910390a1565b6000813590506109f5816110bf565b92915050565b60008083601f840112610a0d57600080fd5b8235905067ffffffffffffffff811115610a2657600080fd5b602083019150836020820283011115610a3e57600080fd5b9250929050565b60008083601f840112610a5757600080fd5b8235905067ffffffffffffffff811115610a7057600080fd5b602083019150836020820283011115610a8857600080fd5b9250929050565b600081519050610a9e816110d6565b92915050565b600081519050610ab3816110ed565b92915050565b600060208284031215610acb57600080fd5b6000610ad9848285016109e6565b91505092915050565b600080600080600060608688031215610afa57600080fd5b6000610b08888289016109e6565b955050602086013567ffffffffffffffff811115610b2557600080fd5b610b31888289016109fb565b9450945050604086013567ffffffffffffffff811115610b5057600080fd5b610b5c88828901610a45565b92509250509295509295909350565b600060208284031215610b7d57600080fd5b6000610b8b84828501610a8f565b91505092915050565b600060208284031215610ba657600080fd5b6000610bb484828501610aa4565b91505092915050565b610bc681610e99565b82525050565b610bd581610eab565b82525050565b610be481610ee1565b82525050565b6000610bf7602d83610e2e565b9150610c0282610f7d565b604082019050919050565b6000610c1a601483610e2e565b9150610c2582610fcc565b602082019050919050565b6000610c3d602683610e2e565b9150610c4882610ff5565b604082019050919050565b6000610c60600f83610e2e565b9150610c6b82611044565b602082019050919050565b6000610c83601083610e2e565b9150610c8e8261106d565b602082019050919050565b6000610ca6602083610e2e565b9150610cb182611096565b602082019050919050565b610cc581610ed7565b82525050565b6000602082019050610ce06000830184610bbd565b92915050565b6000606082019050610cfb6000830186610bbd565b610d086020830185610bbd565b610d156040830184610cbc565b949350505050565b6000602082019050610d326000830184610bcc565b92915050565b6000602082019050610d4d6000830184610bdb565b92915050565b60006020820190508181036000830152610d6c81610bea565b9050919050565b60006020820190508181036000830152610d8c81610c0d565b9050919050565b60006020820190508181036000830152610dac81610c30565b9050919050565b60006020820190508181036000830152610dcc81610c53565b9050919050565b60006020820190508181036000830152610dec81610c76565b9050919050565b60006020820190508181036000830152610e0c81610c99565b9050919050565b6000602082019050610e286000830184610cbc565b92915050565b600082825260208201905092915050565b6000610e4a82610ed7565b9150610e5583610ed7565b9250817fffffffffffffffffffffffffffffffffffffffffffffffffffffffffffffffff0483118215151615610e8e57610e8d610f4e565b5b828202905092915050565b6000610ea482610eb7565b9050919050565b60008115159050919050565b600073ffffffffffffffffffffffffffffffffffffffff82169050919050565b6000819050919050565b6000610eec82610ef3565b9050919050565b6000610efe82610eb7565b9050919050565b6000610f1082610ed7565b91507fffffffffffffffffffffffffffffffffffffffffffffffffffffffffffffffff821415610f4357610f42610f4e565b5b600182019050919050565b7f4e487b7100000000000000000000000000000000000000000000000000000000600052601160045260246000fd5b7f62656e6566696369617269657320616e6420746f6b656e206c656e677468206d60008201527f75737420626520657175616c2e00000000000000000000000000000000000000602082015250565b7f5061757361626c653a206e6f7420706175736564000000000000000000000000600082015250565b7f4f776e61626c653a206e6577206f776e657220697320746865207a65726f206160008201527f6464726573730000000000000000000000000000000000000000000000000000602082015250565b7f676574206d6f726520746f6b656e730000000000000000000000000000000000600082015250565b7f5061757361626c653a2070617573656400000000000000000000000000000000600082015250565b7f4f776e61626c653a2063616c6c6572206973206e6f7420746865206f776e6572600082015250565b6110c881610e99565b81146110d357600080fd5b50565b6110df81610eab565b81146110ea57600080fd5b50565b6110f681610ed7565b811461110157600080fd5b5056fea2646970667358221220ee815b50522ce83ee95b15513755b137a86b68c3567295e6ee71d80b200521ea64736f6c63430008040033",
  "linkReferences": {},
  "deployedLinkReferences": {}
}