{
  "_format": "hh-sol-artifact-1",
  "contractName": "Boon",
  "sourceName": "contracts/Boon.sol",
  "abi": [
    {
      "inputs": [],
      "stateMutability": "nonpayable",
      "type": "constructor"
    },
    {
      "anonymous": false,
      "inputs": [
        {
          "indexed": true,
          "internalType": "address",
          "name": "from",
          "type": "address"
        },
        {
          "indexed": true,
          "internalType": "address",
          "name": "to",
          "type": "address"
        },
        {
          "indexed": false,
          "internalType": "uint256",
          "name": "value",
          "type": "uint256"
        }
      ],
      "name": "Airdrop",
      "type": "event"
    },
    {
      "anonymous": false,
      "inputs": [
        {
          "indexed": true,
          "internalType": "address",
          "name": "previousOwner",
          "type": "address"
        },
        {
          "indexed": true,
          "internalType": "address",
          "name": "newOwner",
          "type": "address"
        }
      ],
      "name": "OwnershipTransferred",
      "type": "event"
    },
    {
      "anonymous": false,
      "inputs": [
        {
          "indexed": false,
          "internalType": "address",
          "name": "account",
          "type": "address"
        }
      ],
      "name": "Paused",
      "type": "event"
    },
    {
      "anonymous": false,
      "inputs": [
        {
          "indexed": false,
          "internalType": "address",
          "name": "account",
          "type": "address"
        }
      ],
      "name": "Unpaused",
      "type": "event"
    },
    {
      "inputs": [
        {
          "internalType": "address",
          "name": "_token",
          "type": "address"
        },
        {
          "internalType": "address[]",
          "name": "_address",
          "type": "address[]"
        },
        {
          "internalType": "uint256[]",
          "name": "_rewards",
          "type": "uint256[]"
        }
      ],
      "name": "airdrop",
      "outputs": [],
      "stateMutability": "nonpayable",
      "type": "function"
    },
    {
      "inputs": [],
      "name": "nft",
      "outputs": [
        {
          "internalType": "contract IERC721",
          "name": "",
          "type": "address"
        }
      ],
      "stateMutability": "view",
      "type": "function"
    },
    {
      "inputs": [
        {
          "internalType": "address",
          "name": "_nft",
          "type": "address"
        },
        {
          "internalType": "address[]",
          "name": "_address",
          "type": "address[]"
        },
        {
          "internalType": "uint256[]",
          "name": "tokenId",
          "type": "uint256[]"
        }
      ],
      "name": "nftdrop",
      "outputs": [],
      "stateMutability": "nonpayable",
      "type": "function"
    },
    {
      "inputs": [],
      "name": "owner",
      "outputs": [
        {
          "internalType": "address",
          "name": "",
          "type": "address"
        }
      ],
      "stateMutability": "view",
      "type": "function"
    },
    {
      "inputs": [],
      "name": "pause",
      "outputs": [],
      "stateMutability": "nonpayable",
      "type": "function"
    },
    {
      "inputs": [],
      "name": "paused",
      "outputs": [
        {
          "internalType": "bool",
          "name": "",
          "type": "bool"
        }
      ],
      "stateMutability": "view",
      "type": "function"
    },
    {
      "inputs": [],
      "name": "renounceOwnership",
      "outputs": [],
      "stateMutability": "nonpayable",
      "type": "function"
    },
    {
      "inputs": [],
      "name": "token",
      "outputs": [
        {
          "internalType": "contract IERC20",
          "name": "",
          "type": "address"
        }
      ],
      "stateMutability": "view",
      "type": "function"
    },
    {
      "inputs": [
        {
          "internalType": "address",
          "name": "newOwner",
          "type": "address"
        }
      ],
      "name": "transferOwnership",
      "outputs": [],
      "stateMutability": "nonpayable",
      "type": "function"
    },
    {
      "inputs": [],
      "name": "unpause",
      "outputs": [],
      "stateMutability": "nonpayable",
      "type": "function"
    }
  ],
  "bytecode": "0x608060405234801561001057600080fd5b5061002d61002261004c60201b60201c565b61005460201b60201c565b60008060146101000a81548160ff021916908315150217905550610118565b600033905090565b60008060009054906101000a900473ffffffffffffffffffffffffffffffffffffffff169050816000806101000a81548173ffffffffffffffffffffffffffffffffffffffff021916908373ffffffffffffffffffffffffffffffffffffffff1602179055508173ffffffffffffffffffffffffffffffffffffffff168173ffffffffffffffffffffffffffffffffffffffff167f8be0079c531659141344cd1fd0a4f28419497f9722a3daafe3b4186f6b6457e060405160405180910390a35050565b61163b806101276000396000f3fe608060405234801561001057600080fd5b506004361061009e5760003560e01c80638456cb59116100665780638456cb591461010f5780638da5cb5b14610119578063903530c714610137578063f2fde38b14610153578063fc0c546a1461016f5761009e565b8063025ff12f146100a35780633f4ba83a146100bf57806347ccca02146100c95780635c975abb146100e7578063715018a614610105575b600080fd5b6100bd60048036038101906100b89190610f95565b61018d565b005b6100c761057d565b005b6100d1610603565b6040516100de9190611215565b60405180910390f35b6100ef610629565b6040516100fc91906111df565b60405180910390f35b61010d61063f565b005b6101176106c7565b005b61012161074d565b60405161012e919061118d565b60405180910390f35b610151600480360381019061014c9190610f95565b610776565b005b61016d60048036038101906101689190610f6c565b610b6b565b005b610177610c63565b60405161018491906111fa565b60405180910390f35b610195610629565b156101d5576040517f08c379a00000000000000000000000000000000000000000000000000000000081526004016101cc906112b0565b60405180910390fd5b84600160006101000a81548173ffffffffffffffffffffffffffffffffffffffff021916908373ffffffffffffffffffffffffffffffffffffffff1602179055506000600160009054906101000a900473ffffffffffffffffffffffffffffffffffffffff1673ffffffffffffffffffffffffffffffffffffffff166370a08231336040518263ffffffff1660e01b8152600401610273919061118d565b60206040518083038186803b15801561028b57600080fd5b505afa15801561029f573d6000803e3d6000fd5b505050506040513d601f19601f820116820180604052508101906102c39190611047565b11610303576040517f08c379a00000000000000000000000000000000000000000000000000000000081526004016102fa90611290565b60405180910390fd5b81819050848490501461034b576040517f08c379a000000000000000000000000000000000000000000000000000000000815260040161034290611230565b60405180910390fd5b60005b84849050811015610575576000670de0b6b3a764000084848481811061039d577f4e487b7100000000000000000000000000000000000000000000000000000000600052603260045260246000fd5b905060200201356103ae919061131c565b9050600160009054906101000a900473ffffffffffffffffffffffffffffffffffffffff1673ffffffffffffffffffffffffffffffffffffffff166323b872dd33888886818110610428577f4e487b7100000000000000000000000000000000000000000000000000000000600052603260045260246000fd5b905060200201602081019061043d9190610f6c565b846040518463ffffffff1660e01b815260040161045c939291906111a8565b602060405180830381600087803b15801561047657600080fd5b505af115801561048a573d6000803e3d6000fd5b505050506040513d601f19601f820116820180604052508101906104ae919061101e565b508585838181106104e8577f4e487b7100000000000000000000000000000000000000000000000000000000600052603260045260246000fd5b90506020020160208101906104fd9190610f6c565b73ffffffffffffffffffffffffffffffffffffffff163373ffffffffffffffffffffffffffffffffffffffff167f8986d2aad709d6d52ca7673e78442a1ac939dc024b80334c27ca759e7658a0288360405161055991906112f0565b60405180910390a350808061056d90611406565b91505061034e565b505050505050565b610585610c89565b73ffffffffffffffffffffffffffffffffffffffff166105a361074d565b73ffffffffffffffffffffffffffffffffffffffff16146105f9576040517f08c379a00000000000000000000000000000000000000000000000000000000081526004016105f0906112d0565b60405180910390fd5b610601610c91565b565b600260009054906101000a900473ffffffffffffffffffffffffffffffffffffffff1681565b60008060149054906101000a900460ff16905090565b610647610c89565b73ffffffffffffffffffffffffffffffffffffffff1661066561074d565b73ffffffffffffffffffffffffffffffffffffffff16146106bb576040517f08c379a00000000000000000000000000000000000000000000000000000000081526004016106b2906112d0565b60405180910390fd5b6106c56000610d32565b565b6106cf610c89565b73ffffffffffffffffffffffffffffffffffffffff166106ed61074d565b73ffffffffffffffffffffffffffffffffffffffff1614610743576040517f08c379a000000000000000000000000000000000000000000000000000000000815260040161073a906112d0565b60405180910390fd5b61074b610df6565b565b60008060009054906101000a900473ffffffffffffffffffffffffffffffffffffffff16905090565b61077e610629565b156107be576040517f08c379a00000000000000000000000000000000000000000000000000000000081526004016107b5906112b0565b60405180910390fd5b84600260006101000a81548173ffffffffffffffffffffffffffffffffffffffff021916908373ffffffffffffffffffffffffffffffffffffffff1602179055506000600260009054906101000a900473ffffffffffffffffffffffffffffffffffffffff1673ffffffffffffffffffffffffffffffffffffffff166370a08231336040518263ffffffff1660e01b815260040161085c919061118d565b60206040518083038186803b15801561087457600080fd5b505afa158015610888573d6000803e3d6000fd5b505050506040513d601f19601f820116820180604052508101906108ac9190611047565b116108ec576040517f08c379a00000000000000000000000000000000000000000000000000000000081526004016108e390611290565b60405180910390fd5b818190508484905014610934576040517f08c379a000000000000000000000000000000000000000000000000000000000815260040161092b90611230565b60405180910390fd5b60005b84849050811015610b6357600260009054906101000a900473ffffffffffffffffffffffffffffffffffffffff1673ffffffffffffffffffffffffffffffffffffffff166342842e0e338787858181106109ba577f4e487b7100000000000000000000000000000000000000000000000000000000600052603260045260246000fd5b90506020020160208101906109cf9190610f6c565b868686818110610a08577f4e487b7100000000000000000000000000000000000000000000000000000000600052603260045260246000fd5b905060200201356040518463ffffffff1660e01b8152600401610a2d939291906111a8565b600060405180830381600087803b158015610a4757600080fd5b505af1158015610a5b573d6000803e3d6000fd5b50505050848482818110610a98577f4e487b7100000000000000000000000000000000000000000000000000000000600052603260045260246000fd5b9050602002016020810190610aad9190610f6c565b73ffffffffffffffffffffffffffffffffffffffff163373ffffffffffffffffffffffffffffffffffffffff167f8986d2aad709d6d52ca7673e78442a1ac939dc024b80334c27ca759e7658a028858585818110610b34577f4e487b7100000000000000000000000000000000000000000000000000000000600052603260045260246000fd5b90506020020135604051610b4891906112f0565b60405180910390a38080610b5b90611406565b915050610937565b505050505050565b610b73610c89565b73ffffffffffffffffffffffffffffffffffffffff16610b9161074d565b73ffffffffffffffffffffffffffffffffffffffff1614610be7576040517f08c379a0000000000000000000000000000000000000000000000000000000008152600401610bde906112d0565b60405180910390fd5b600073ffffffffffffffffffffffffffffffffffffffff168173ffffffffffffffffffffffffffffffffffffffff161415610c57576040517f08c379a0000000000000000000000000000000000000000000000000000000008152600401610c4e90611270565b60405180910390fd5b610c6081610d32565b50565b600160009054906101000a900473ffffffffffffffffffffffffffffffffffffffff1681565b600033905090565b610c99610629565b610cd8576040517f08c379a0000000000000000000000000000000000000000000000000000000008152600401610ccf90611250565b60405180910390fd5b60008060146101000a81548160ff0219169083151502179055507f5db9ee0a495bf2e6ff9c91a7834c1ba4fdd244a5e8aa4e537bd38aeae4b073aa610d1b610c89565b604051610d28919061118d565b60405180910390a1565b60008060009054906101000a900473ffffffffffffffffffffffffffffffffffffffff169050816000806101000a81548173ffffffffffffffffffffffffffffffffffffffff021916908373ffffffffffffffffffffffffffffffffffffffff1602179055508173ffffffffffffffffffffffffffffffffffffffff168173ffffffffffffffffffffffffffffffffffffffff167f8be0079c531659141344cd1fd0a4f28419497f9722a3daafe3b4186f6b6457e060405160405180910390a35050565b610dfe610629565b15610e3e576040517f08c379a0000000000000000000000000000000000000000000000000000000008152600401610e35906112b0565b60405180910390fd5b6001600060146101000a81548160ff0219169083151502179055507f62e78cea01bee320cd4e420270b5ea74000d11b0c9f74754ebdbfc544b05a258610e82610c89565b604051610e8f919061118d565b60405180910390a1565b600081359050610ea8816115c0565b92915050565b60008083601f840112610ec057600080fd5b8235905067ffffffffffffffff811115610ed957600080fd5b602083019150836020820283011115610ef157600080fd5b9250929050565b60008083601f840112610f0a57600080fd5b8235905067ffffffffffffffff811115610f2357600080fd5b602083019150836020820283011115610f3b57600080fd5b9250929050565b600081519050610f51816115d7565b92915050565b600081519050610f66816115ee565b92915050565b600060208284031215610f7e57600080fd5b6000610f8c84828501610e99565b91505092915050565b600080600080600060608688031215610fad57600080fd5b6000610fbb88828901610e99565b955050602086013567ffffffffffffffff811115610fd857600080fd5b610fe488828901610eae565b9450945050604086013567ffffffffffffffff81111561100357600080fd5b61100f88828901610ef8565b92509250509295509295909350565b60006020828403121561103057600080fd5b600061103e84828501610f42565b91505092915050565b60006020828403121561105957600080fd5b600061106784828501610f57565b91505092915050565b61107981611376565b82525050565b61108881611388565b82525050565b611097816113be565b82525050565b6110a6816113e2565b82525050565b60006110b9602d8361130b565b91506110c48261147e565b604082019050919050565b60006110dc60148361130b565b91506110e7826114cd565b602082019050919050565b60006110ff60268361130b565b915061110a826114f6565b604082019050919050565b6000611122600f8361130b565b915061112d82611545565b602082019050919050565b600061114560108361130b565b91506111508261156e565b602082019050919050565b600061116860208361130b565b915061117382611597565b602082019050919050565b611187816113b4565b82525050565b60006020820190506111a26000830184611070565b92915050565b60006060820190506111bd6000830186611070565b6111ca6020830185611070565b6111d7604083018461117e565b949350505050565b60006020820190506111f4600083018461107f565b92915050565b600060208201905061120f600083018461108e565b92915050565b600060208201905061122a600083018461109d565b92915050565b60006020820190508181036000830152611249816110ac565b9050919050565b60006020820190508181036000830152611269816110cf565b9050919050565b60006020820190508181036000830152611289816110f2565b9050919050565b600060208201905081810360008301526112a981611115565b9050919050565b600060208201905081810360008301526112c981611138565b9050919050565b600060208201905081810360008301526112e98161115b565b9050919050565b6000602082019050611305600083018461117e565b92915050565b600082825260208201905092915050565b6000611327826113b4565b9150611332836113b4565b9250817fffffffffffffffffffffffffffffffffffffffffffffffffffffffffffffffff048311821515161561136b5761136a61144f565b5b828202905092915050565b600061138182611394565b9050919050565b60008115159050919050565b600073ffffffffffffffffffffffffffffffffffffffff82169050919050565b6000819050919050565b60006113c9826113d0565b9050919050565b60006113db82611394565b9050919050565b60006113ed826113f4565b9050919050565b60006113ff82611394565b9050919050565b6000611411826113b4565b91507fffffffffffffffffffffffffffffffffffffffffffffffffffffffffffffffff8214156114445761144361144f565b5b600182019050919050565b7f4e487b7100000000000000000000000000000000000000000000000000000000600052601160045260246000fd5b7f62656e6566696369617269657320616e6420746f6b656e206c656e677468206d60008201527f75737420626520657175616c2e00000000000000000000000000000000000000602082015250565b7f5061757361626c653a206e6f7420706175736564000000000000000000000000600082015250565b7f4f776e61626c653a206e6577206f776e657220697320746865207a65726f206160008201527f6464726573730000000000000000000000000000000000000000000000000000602082015250565b7f676574206d6f726520746f6b656e730000000000000000000000000000000000600082015250565b7f5061757361626c653a2070617573656400000000000000000000000000000000600082015250565b7f4f776e61626c653a2063616c6c6572206973206e6f7420746865206f776e6572600082015250565b6115c981611376565b81146115d457600080fd5b50565b6115e081611388565b81146115eb57600080fd5b50565b6115f7816113b4565b811461160257600080fd5b5056fea264697066735822122065f5329466c8deb16edd5e362c324eebb29fcfbf32a17e966fb0e77ce3eae26364736f6c63430008040033",
  "linkReferences": {},
  "deployedLinkReferences": {}
}